:1025190012265F121E65900168E06006E4F0FF1262
:10252900003E900158E06010900155E0600AE49087
:102539000158F07F0112003E90015DE06005E4F072
:10254900122A10900154E0600D900159E06007E4EF
:10255900F07F051220C9900204E060B7E4F012246C
:032569006980B0D6
:101260004101640041020A00410147004101600060
:1012700041015F0041020301410154004101590055
:10128000410158004101680041015E0041015501E2
:1012900041015A01410165014101630141015D00C4
:1012A0004101670041016A004102060041016900F5
:1012B0004101610041014A004F020B1020304050B3
:1012C00060708090A0B0C0D0E0F041020400410204
:1012D0000500410157014101560042016B000042E7
:1012E000015B0258410209004101490C410207011A
:1012F00041020801410162006096016D2D2D2D2DE6
:101300002D2D2D2D2D2D2D2D2D2D0000000000001B
:1013100000000000000000000000000000000000CD
:1013200000000000000000000000000000000000BD
:1013300000000000000000000000000000000000AD
:10134000000000000000000000000000000000009D
:10135000000000000000000000000000000000008D
:10136000000000000000000000000000000000007D
:10137000000000000000000000000000000000006D
:10138000000000000000000000000000000000005D
:06139000000041016600AF
:0300130002289C24
:10289C00C0E0C083C082900208E0601920B316909B
:1028AC000157E0601090015D7401F0900157E4F065
:0C28BC0090015604F0D082D083D0E032AE
:05000600D2AAD28A22FB
:102A7B00535047283434293B0D0A00535047283410
:062A8B0035293B0D0A0095
:10265F00E4900157F0439401120006122A91122AB6
:10266F00ED122ACC122177D2AF7F01122A307F01CF
:10267F00122A307F01122A309001577401F0900016
:10268F0003E0FBA3E0FAA3E0F9122B7590016AE0D7
:0D269F0004FF1200161223267F02022B22D8
:101E650020A018122AFD20A00A9001477401F090C5
:101E75000168F030A003021F3980F820A119122A49
:101E8500FD20A10B9001477402F090016814F03019
:101E9500A103021F3980F820A21A122AFD20A20CE4
:101EA5009001477403F09001687401F030A20302B9
:101EB5001F3980F820A317122AFD20A30C90014793
:101EC5007404F09001687401F020A36880FB20A4DD
:101ED50017122AFD20A40C9001477405F0900168A3
:101EE5007401F020A44E80FB20A517122AFD20A521
:101EF5000C9001477406F09001687401F020A53438
:101F050080FB20A617122AFD20A60C900147740716
:101F1500F09001687401F020A61A80FB20A7151225
:101F25002AFD20A70C9001477408F0900168740100
:051F3500F030A7FD22C1
:1029ED00900165E0701C9001597401F07BFF7A2015
:1029FD00790B122B65900206E0FF122B387F011226
:032A0D0020C922BB
:1027F700EFC39430400CEFD394395006C3EF9430B5
:10280700FF22EFC39441400BEFD394465005EF24CA
:10281700C9FF22EFC39461400BEFD394665005EFD5
:0728270024A9FF227F3022EB
:1026F700900170E0FF1227F7AE07EEFA7B0090011A
:102707006FE0FF1227F7FFEFC454F0FEEB2400FD44
:10271700EE3AFC900171E0FF1227F7EF75F010A475
:102727002DFDE5F03CFCA3E0FF1227F77E00ED2F1F
:05273700FFEE3CFE2254
:02282E00A907F8
:102830001226F7E914601414601714601924FE605E
:102840001E2405701F900149EFF022900148EFF01F
:102850002290016B800390015BEEF0A3EFF02290D9
:042860000166EFF02E
:012864002251
:10273C00EF14601614601B14602024FE6024240522
:10274C00702E7BFF7A207947801E7BFF7A20794D93
:10275C0080167BFF7A207953800E7BFF7A20795983
:10276C0080067BFF7A2079AD122AA5E4FF122A306D
:01277C00223A
:102ADD0090021CEFF012273C90021CE0FF02282E02
:1024C2007BFF7A20795F122AA57F01122A309001C0
:1024D2006FE090014BF0900170E090014CF09001A0
:1024E20071E090014DF0900172E090014EF0900188
:1024F20073E090014FF0900174E0900150F0900170
:1025020077E0900151F0900178E0900152F0900153
:0725120079E0900153F02273
:082B6500122AA5E4FF022A3048
:0B2B0C001228C8122AA5E4FF022A309C
:0B2B17001228F3122AA5E4FF022A3066
:0B2B220012291E122AA5E4FF022A302F
:032B7B00022AB972
:062B7500122AB902000E55
:0D001600EF2430FF1229C6122AB902000E95
:092B3800122949122AB902000E0B
:092B410012299D122AB902000EAE
:092B4A00122974122AB902000ECE
:092B53001226AC122AB902000E90
:092B5C001227BE122AB902000E74
:10154A00900161E06003021613900208E060549073
:10155A000207E06028900163E070047B09801A901A
:10156A000163E0B401067B0B7D058054900163E0C2
:10157A00640260030217D67B0D7D058055900163D6
:10158A00E070047B098018900163E0B401047B0BCE
:10159A00800D900163E0640260030217D67B0D7D23
:1015AA0005803D900207E0602D900163E070067BA4
:1015BA00097D07801D900163E0B401077B0B7D075D
:1015CA00E4800F900163E0640260030217D67B0D8A
:1015DA007D07FF0217D0900163E070097B097D0740
:1015EA007F020217D0900163E0B401097B0B7D07EB
:1015FA007F020217D0900163E0640260030217D6EB
:10160A007B0D7D077F020217D0900161E0640160C3
:10161A00030216FC900208E0606C900207E0603357
:10162A00900163E070097B097D047F010217D09065
:10163A000163E0B401097B0B7D047F010217D0909E
:10164A000163E0640260030217D67B0D7D047F010B
:10165A000217D0900163E070097B097D047F0302C1
:10166A0017D0900163E0B401097B0B7D047F03026C
:10167A0017D0900163E0640260030217D67B0D7DE8
:10168A00047F030217D0900207E06033900163E001
:10169A0070097B097D067F010217D0900163E0B4CF
:1016AA0001097B0B7D067F010217D0900163E0647C
:1016BA000260030217D67B0D7D067F010217D090C8
:1016CA000163E070097B097D067F030217D0900150
:1016DA0063E0B401097B0B7D067F030217D09001FA
:1016EA0063E0640260030217D67B0D7D067F030266
:1016FA0017D0900161E0640260030217D6900208D5
:10170A00E06066900207E06033900163E070097B55
:10171A00087D057F010217D0900163E0B401097BBF
:10172A000A7D057F010217D0900163E0640260031D
:10173A000217D67B0C7D057F010217D0900163E06A
:10174A0070087B087D057F03807C900163E0B4010B
:10175A00087B0A7D057F03806D900163E064027057
:10176A006B7B0C7D057F03805D900207E0602D9006
:10177A000163E070087B087D077F0180499001635F
:10178A00E0B401087B0A7D077F01803A900163E09B
:10179A00640270387B0C7D077F01802A900163E028
:1017AA0070087B087D077F03801C900163E0B40109
:1017BA00087B0A7D077F03800D900163E0B4020C69
:0F17CA007B0C7D077F0312256C122AB902000EDB
:1020C900EFB4090040030221769020D9F82828733B
:1020D9000220F40220F902217602213502213A0276
:1020E900213F02214502217102210D1228658049F3
:1020F900900209E07BFF60067A2A797B803B7A2A85
:1021090079868035900209E0900159700EF07F02BE
:10211900122ADD7BFF7A207911800E7401F07F028B
:10212900122ADD7BFF7A20790B022B6512240080AD
:10213900081223938003121D7D022B75E490016B15
:10214900F0A3F07F011220C91224C27F05122ADDF3
:102159007F031220C97F02122ADD7F051220C97F61
:0E21690003122ADD7F0480027F051220C922A6
:10232600900162E06021900165E014600E14600F78
:10233600146010240370557F01801F7F0180277F62
:1023460001802F7F018037900165E01460161460CC
:102356001F14602824037034E4FF122A64122B7BB6
:102366007F028022E4FF122A64122B7B7F038016F1
:10237600E4FF122A64122B7B7F04800AE4FF122AF0
:0D23860064122B7B7F05122A64122B752236
:102A1000C2AA900164E0B401149002097401F07B31
:102A2000FF7A20791D122B657F061220C9D2AA22B7
:10246900900165E0702E900164E0B4011C900205B2
:102479007401F0E4900209F0900206E0FF122B3893
:102489007F081220C97F01802CE4900209F0900294
:102499000504F022900165E0FF64016009EF640220
:1024A9006004EFB403129002097401F0900164E032
:0924B900B401057F061220C922BE
:0513960042026B0000A3
:101F3A0090026FE012123A1FA8071F88081FB809FB
:101F4A001FF70D1FB0151F78161F80181FEF191FD6
:101F5A00901C1FC8401FD0431FC0441FD8451FDF15
:101F6A00461FE7471FA0521F985A00001FFD900204
:101F7A000A7409F0807D90020A740CF08075900250
:101F8A000A740DF0806D90020A7410F08065900258
:101F9A000A740EF0805D90020A740FF08055900268
:101FAA000A7406F0804D90020A7407F08045900288
:101FBA000A7408F0803D90020A7403F0803590029A
:101FCA000A7404F0802D90020A7405F08025E490CA
:101FDA00020AF0801E90020A7401F0801690020A2A
:101FEA007402F0800E90020A740AF0800690020AC7
:101FFA00740BF07F017E001200269001587401F0E4
:01200A0022B3
:102610007B01E4FE7D0174712BF582E43402F583C5
:10262000E0FCD39407400790021AE04480F0EDC329
:102630009408500790021AE0C313F00B0DEDB40993
:10264000D590021AE0FF746D2EF582E43402F58312
:0F265000EFF0E490021AF00EEEB404B8021F3A55
:100026007D0B7CBEEF1FAA0670011E4A6006DCFE31
:04003600DDFC80F07D
:01003A0022A3
:102ACC00D288D2A8438902E4F58CF58AD2A9D28C9B
:012ADC0022D7
:0300030002220EC8
:10220E00C0E0C0F0C083C082C0D075D000C000C096
:0D221E0001C002C003C004C005C006C00717
:10222B00900207E0604E900155E0604830003E9010
:10223B00026AE0FFC3943F500BEFC394214005901B
:10224B000269E4F0900269E02471F582E43402F54E
:10225B0083EFF090026AE4F0900269E004F0E0B4DE
:10226B002112D201E4F0122610C201800790026AFB
:04227B00E4F0D200B9
:10227F00D007D006D005D004D003D002D001D000B3
:0B228F00D0D0D082D083D0F0D0E0325D
:03000B00022A4D79
:102A4D00C0E0C083C082C28C90026AE004F0D28CD8
:072A5D00D082D083D0E032EB
:102A3000EF600D7C117DD07E1BDEFEDDFCDCFA221A
:0C2A40007C057D347EC3DEFEDDFCDCFA8C
:012A4C002267
:0E2AFD0000007F017ED87D23DDFEDEFCDFFAC7
:012B0B0022A7
:04000E002091FD221E
:10200B007E030102EFFF7E030201EFFF7E030E0D45
:10201B00EFFF7E030300EFFF7E030407EFFF7E035A
:10202B000506EFFF7E030605EFFF7E030B08EFFFB0
:10203B007E030A09EFFF7E031013EFFF7E031112DD
:10204B00EFFF7E031516EFFF7E031C1FEFFF7E03D2
:10205B001D1EEFFF7E031E1DEFFF7E054100014598
:10206B00EFFF7E0541000246EFFF7E05410003476F
:10207B00EFFF7E0541000440EFFF7E054100054167
:10208B00EFFF7E0541000642EFFF7E05410007434F
:10209B00EFFF7E054100084CEFFF7E054100094D27
:1020AB00EFFF7E03191AEFFF7E0541000145EFFF9D
:0E20BB007E04310336EFFF7E04330000EFFF9A
:0528C80090021CEFF07E
:1028CD00781D7C027D017BFF7A2079B37E007F0825
:1028DD0012118690021CE0900221F06444A3F07B5B
:0528ED00017A02791DD3
:0128F20022C3
:0528F30090021CEFF053
:1028F800781D7C027D017BFF7A2079BB7E007F07F3
:1029080012118690021CE0900220F06435A3F07B3F
:05291800017A02791DA7
:01291D002297
:05291E0090021CEFF027
:10292300781D7C027D017BFF7A2079C27E007F07C0
:1029330012118690021CE0900220F06437A3F07B12
:05294300017A02791D7C
:01294800226C
:10003E0090021BEFF0E4900155F0900164E0147013
:10004E000302026F1470030208D8147003020589AC
:10005E00147003020717147003020CA62405600324
:10006E00020D4C90021BE0705E900147E024FD6093
:10007E001214601314600E14600724046003020D42
:10008E004C80608066806C90016AE014601614608B
:10009E001614601614602A14602A24056003020DDB
:1000AE004C0201630201B50201E9900162E0600EAB
:1000BE00E4F090015EE07003740FF0020219020288
:1000CE002702024102025890020AE024F7603C2403
:1000DE00FC601814601D14600A146053240460033D
:1000EE00020D4C90016AE02403800E90016AE02418
:1000FE0005800690016AE02401FFE433FE7C007D5A
:10010E00061211D7AF05EFF0020CF9900205E06070
:10011E0003020D0E900209E070047F0180027F0041
:10012E00900209EFF07BFF7003020D3F020D459028
:10013E00016AE01460711470030201E91470030285
:10014E0002081470030202411470030202582405BF
:10015E006003020D4C9001647401F0900036E0FBD8
:10016E00A3E0FAA3E0F9122B75900206E0FF122B22
:10017E0038E4FF122ADDE4FF1220C97F011220C9E4
:10018E007F03122ADD7F041220C97F02122ADD7F2F
:10019E00051220C97F05122ADD1224C27F03122008
:1001AE00C9900154020C849001647402F0900141D4
:1001BE00E0FBA3E0FAA3E0F9122B7590014AE0FFF1
:1001CE00122B4A900203E0FF122B5C7F01122ADDF4
:1001DE00900148E0FF122B53020D4C900164740302
:1001EE00F0900000E0FBA3E0FAA3E0F9122B75906B
:1001FE000165E0FF900169020699900162E06019C5
:10020E00E4F090015EE07003740FF090015EE090F8
:10021E000149F01223260202D89001627401F09077
:10022E000149E090015EF0E4900149F0122326E4CA
:10023E000205599001647404F090010EE0FBA3E0F6
:10024E00FAA3E0F9122B750208B59001647405F05B
:10025E00900144E0FBA3E0FAA3E0F9122B75020D26
:10026E004C90021BE060030203BE900147E0FF14B6
:10027E00B408004003020D4C90029475F003A4C51F
:10028E008325F0C583730202AC0202DF0202F20282
:10029E0002FF02034002034D020360020397EF14B4
:1002AE00FF900206F0900149E024FDF0122B3890E9
:1002BE000149E0C394005002E4F0900149E070055A
:1002CE0090016204F0E4FF1220C9900149E002059A
:1002DE00599002097401F0900147E014FF90020654
:1002EE00F0020498900147E014FF900206F0020419
:1002FE00A8900205E0601DE4F090016BF0A3F09071
:10030E00020904F0900147E014FF900206F0122B50
:10031E00380204C6900209E070047F0180027F005B
:10032E00900209EFF0900147E014FF900206F002F0
:10033E0004E6900147E014FF900206F00204F790E5
:10034E0002097401F0900147E014FF900206F002DA
:10035E000516900147E014FF900206F0122B38901C
:10036E000149E02403F0E0D3941E4003741EF09084
:10037E000149E0D394004005E4900162F0E4FF12DD
:10038E0020C9900149E0020559E4900164F0900003
:10039E0003E0FBA3E0FAA3E0F9122B7512232690DB
:1003AE00016AE004FF120016E4900154F0020D4CB5
:1003BE0090020AE024F7B408004003020D4C9003AB
:1003CE00DA75F003A4C58325F0C583730203F20228
:1003DE000D4C0205620204210204210204290204CA
:1003EE0029020438900205E06010E4F090016BF0F1
:1003FE00A3F090020904F00204C6900209E0700412
:10040E007F0180027F00900209EFF0900206E0FF6C
:10041E000204E6900206E024078005900206E0043E
:10042E005407FFF0122B38020D4C900206E0FFB479
:10043E0008004003020D4C90044CF8282873020467
:10044E006402048D0204A30204B30204F202050B3B
:10045E0002052A020560122B38900149E024FDF0B6
:10046E00E0C394005002E4F0900149E07005900161
:10047E006204F0E4FF1220C9900149E00205599090
:10048E0002097401F0900206E0FF122B387BFF7A0E
:10049E00207923807C900206E0FF122B387BFF7AB6
:1004AE00207935804D900205E06017E4F090016BE5
:1004BE00F0A3F090020904F01229ED900155740199
:1004CE00F022900209E070047F0180027F0090020A
:1004DE0009EFF0900206E0FF122B387F011220C9BF
:1004EE007F088032900206E0FF122B387BFF7A20C5
:1004FE00793B122B657F02122ADD020D4C90020908
:10050E007401F0900206E0FF122B387BFF7A2079FF
:10051E001D122B657F061220C9020D4C900206E0BB
:10052E00FF122B38900149E02403F0E0D3941E40D3
:10053E0003741EF0900149E0D394004005E490014D
:10054E0062F0E4FF1220C9900149E0FF122B17025E
:10055E000D4C8000E4900164F0900003E0FBA3E0FA
:10056E00FAA3E0F9122B7590016AE004FF1200164F
:10057E00E4900154F0122326020D4C90021BE06011
:10058E000302062E900147E024FC60251460172418
:10059E00FD607024056003020D4C900169E0240398
:1005AE005403FF020699900169E0045403FF02060A
:1005BE0099900169E0900165F0E4900164F090007B
:1005CE0003E0FBA3E0FAA3E0F9122B7512232690A9
:1005DE00016AE004FF120016900165E07003020646
:1005EE00CD900165E0B401030206D8900165E0B438
:1005FE0002030206E3900165E064036003020D4C02
:10060E000206F2E4900164F0900003E0FBA3E0FA2E
:10061E00A3E0F9122B7512232690016AE0020CF961
:10062E0090020AE024F7B408004003020D4C900635
:10063E004A75F003A4C58325F0C5837302066202D2
:10064E000D4C0206FA020686020686020691020684
:10065E00910206A0900205E06003020D0E900209C1
:10066E00E070047F0180027F00900209EFF07BFFB3
:10067E007003020D3F020D45900169E024035403FF
:10068E00FF8008900169E0045403FFF0122B410231
:10069E000D4C900169E0900165F0E4900164F090DA
:1006AE000003E0FBA3E0FAA3E0F9122B7512232658
:1006BE0090016AE004FF120016900165E070047F5D
:1006CE00048023900165E0B401047F02801890013C
:1006DE0065E0B402047F01800D900165E064036063
:1006EE0003020D4C7F03122B22020D4CE490016489
:1006FE00F0900003E0FBA3E0FAA3E0F9122B7512D1
:10070E00232690016AE0020CF990021BE0600302BE
:10071E0007D9900147E024FC602A14602424FD7060
:10072E00030207BC24056003020D4C900161E02416
:10073E0002FFE433FE7C007D031211D7EDF00208B8
:10074E00B5020839900161E0FF7013900207E07066
:10075E00047E0180027E00900207EEF0804DEF6471
:10076E00017021900208E070047F0180027F0090EA
:10077E000208EFF0600AE4900157F090015604F081
:10078E00B2808027900161E0B40220900163E0FF07
:10079E00700404F08015EFB401089001637402F048
:1007AE008009EFB40205E4900163F00208B5E4900D
:1007BE000164F0900003E0FBA3E0FAA3E0F9122B32
:1007CE007512232690016AE0020CF990020AE024C9
:1007DE00F7B408004003020D4C9007F575F003A422
:1007EE00C58325F0C5837302080D020D4C0208BBAC
:1007FE0002083102083102083902083902084E9007
:10080E000205E06003020D0E900209E070047F0104
:10081E0080027F00900209EFF07BFF7003020D3F14
:10082E00020D45900161E024028006900161E024F2
:10083E0001FFE433FE7C007D031211D7EDF08067DB
:10084E00900161E0FF7013900207E070047E01805A
:10085E00027E00900207EEF0804DEF640170219051
:10086E000208E070047F0180027F00900208EFF022
:10087E00600AE4900157F090015604F0B280802790
:10088E00900161E0B40220900163E0FF700404F077
:10089E008015EFB401089001637402F08009EFB483
:1008AE000205E4900163F012154A020D4CE490012A
:1008BE0064F0900003E0FBA3E0FAA3E0F9122B75BD
:1008CE0012232690016AE0020CF990021BE06003ED
:1008DE000209E5900147E024FE70030209B724FEE9
:1008EE0070030209BA14606D1470030209B724FE76
:1008FE0070030209C824056003020D4C90014AE002
:10090E00702F900203E0FB75F00A84FF7E007C00DE
:10091E007D0A1211C5EB75F00A84EF25F0FFEC3E4F
:10092E00CF245ACF3400FE7D641211D7EDF0020CA5
:10093E006E900203E0FFB401067463F0020C6EEFDA
:10094E002463FFE433FE7C007D641211D790020312
:10095E00EDF0020C6E90014AE0702B900203E0FB6A
:10096E0075F00A842401FFE433FE7C007D0A121127
:10097E00C5EB75F00A84EF25F0FFEC3EFE7D6412A8
:10098E0011D7EDF08020900203E0FFB463057401EF
:10099E00F08013EF2401FFE433FE7C007D6412111E
:1009AE00D7900203EDF0020C6E020AA6900203E04D
:1009BE00FF122B0C900209020C84E4900164F0905B
:1009CE000003E0FBA3E0FAA3E0F9122B7512232635
:1009DE0090016AE0020CF990020AE0B411004003A3
:1009EE00020D4C9009F8F8282873020B31020B54B3
:1009FE00020B78020B9C020BC0020BE4020C0702E6
:100A0E000C2A020C4D020A2B020B09020C8A020A56
:100A1E004F020AA6020AA6020AB5020C7990020536
:100A2E00E06003020D0E900209E070047F01800267
:100A3E007F00900209EFF07BFF7003020D3F020D65
:100A4E004590014AE0702E900203E0FB75F00A8497
:100A5E00FF7E007C007D0A1211C5EB75F00A84EF53
:100A6E0025F0FFEC3ECF245ACF3400FE7D641211E8
:100A7E00D7EDF08020900203E0FFB401057463F01F
:100A8E008013EF2463FFE433FE7C007D641211D7E4
:100A9E00900203EDF0020C6E90014AE0045401FF47
:100AAE00F0122B4A020D4C90014AE0702B9002037B
:100ABE00E0FB75F00A842401FFE433FE7C007D0A1E
:100ACE001211C5EB75F00A84EF25F0FFEC3EFE7DAA
:100ADE00641211D7EDF08020900203E0FFB463059D
:100AEE007401F08013EF2401FFE433FE7C007D647B
:100AFE001211D7900203EDF0020C6E90014AE070D5
:100B0E0010900203E075F00A84AFF0EF6012F080EF
:100B1E000F900203E075F00A84600575F00AA4F0E8
:100B2E00020C6E90014AE0900203700CE075F00A20
:100B3E0084E5F0240AF0800BE075F00A8475F00A63
:100B4E00A404F0020C6E90014AE0900203700CE0D7
:100B5E0075F00A84E5F02414F0800CE075F00A8438
:100B6E0075F00AA42402F0020C6E90014AE0900285
:100B7E0003700CE075F00A84E5F0241EF0800CE0A2
:100B8E0075F00A8475F00AA42403F0020C6E90012D
:100B9E004AE0900203700CE075F00A84E5F0242818
:100BAE00F0800CE075F00A8475F00AA42404F002BB
:100BBE000C6E90014AE0900203700CE075F00A840E
:100BCE00E5F02432F0800CE075F00A8475F00AA48A
:100BDE002405F0020C6E90014AE0900203700CE0C6
:100BEE0075F00A84E5F0243CF0800CE075F00A8480
:100BFE0075F00AA42406F0806790014AE090020383
:100C0E00700CE075F00A84E5F02446F0800CE07577
:100C1E00F00A8475F00AA42407F0804490014AE09B
:100C2E00900203700CE075F00A84E5F02450F08019
:100C3E000CE075F00A8475F00AA42408F080219067
:100C4E00014AE0900203700CE075F00A84E5F0248E
:100C5E005AF0800CE075F00A8475F00AA42409F0AD
:100C6E00900203E0FF122B5C020D4C900203E0FF9A
:100C7E00122B0C9002097401F0020D4CE4900164E9
:100C8E00F0900003E0FBA3E0FAA3E0F9122B75123B
:100C9E00232690016AE0805390021BE0702690019B
:100CAE0047E064086003020D4C900164F09000036D
:100CBE00E0FBA3E0FAA3E0F9122B751223269001B4
:100CCE006AE0802790020AE0FF640B6004EFB41024
:100CDE0021E4900164F0900003E0FBA3E0FAA3E0AE
:100CEE00F9122B7512232690016AE004FF120016EA
:100CFE00804C90020AE064097044900205E0601C8A
:100D0E00E4F090016BF0A3F07BFF7A20790B122BAD
:100D1E00659002097401F0900155F022900209E0ED
:100D2E0070047F0180027F00900209EFF07BFF705C
:100D3E00067A20791180047A20790B122B659001A6
:0B0D4E00557401F090020A747FF0223F
:1017D900535047283334293B0D0A005350472833C7
:1017E90035293B0D0A0050494328302C302C313221
:1017F900293B0D0A0050494328302C302C32382916
:101809003B5053313628332C3130392C34312C2785
:101819002D2D272C3135293B0D0A005049432830FD
:101829002C302C3139293B0D0A0050494328302CE2
:10183900302C3332293B0D0A0053504728333629BF
:101849003B0D0A00535047283337293B0D0A0053F3
:101859005047283338293B0D0A005350472833395C
:10186900293B0D0A00535047283430293B0D0A0003
:10187900535047283431293B0D0A00535047283427
:1018890032293B0D0A00535047283433293B0D0AAE
:1018990000535047283437293B0D0A005350472835
:1018A9003438293B0D0A00535047283439293B0D58
:1018B9000A00535047283530293B0D0A0053504739
:1018C900283531293B0D0A00535047283532293B29
:1018D9000D0A00535047283533293B0D0A00535050
:1018E90047283534293B0D0A0049434F4E283337E1
:1018F9002C3134382C31382C362C312C30293B0002
:1019090049434F4E2833372C3134382C31382C3653
:101919002C312C31293B0049434F4E283332352C89
:1019290036302C31382C362C312C32293B0D0A001B
:1019390049434F4E283332352C36302C31382C362A
:101949002C312C33293B0D0A0049434F4E283332A1
:10195900352C36302C31382C362C312C34293B0D92
:101969000A0049434F4E283332352C36302C313852
:101979002C362C312C35293B0D0A00505331362891
:10198900332C3130392C34312C272D2D272C31355E
:10199900293B0D0A00573853452830293B53424308
:1019A9002830293B0D0A0049434F4E283130362C47
:1019B90035302C33342C312C31342C78293B4943A4
:1019C9004F4E283130362C38352C33342C312C31CC
:1019D900342C78293B49434F4E283130362C31324B
:1019E900302C33342C312C31342C7878293B0D0AA6
:1019F90000504943283136352C3134302C333129C4
:101A09003B0D0A005049432838332C34352C3133E7
:101A1900293B0D0A0049535452283136342C3930A8
:0D1A29002C32392C27303827293B0D0A00BC
:10139B00430003FF17D9430036FF17E4430000FF58
:1013AB0017EF430141FF17FE43010EFF18244301C2
:1013BB0044FF18336030000649434F4E2833323018
:1013CB002C31332C342C322C312C31293B505332D1
:1013DB003428312C3335302C31352C273025202730
:1013EB002C3135293B0D0A006030011149434F4E1A
:1013FB00283332302C31332C342C322C312C3029F5
:10140B003B5053323428312C3335302C31352C278B
:10141B00302520272C3135293B0D0A005E00395031
:10142B0053313628312C3334382C3137362C273086
:10143B00303A3030272C3135293B0D0A00603D0006
:10144B00575053313628312C3239382C3137362C12
:10145B002730303A30302F272C3135293B50494338
:10146B002831322C3137352C3131293B5049432827
:10147B003031352C3137352C35293B0D0A0060388E
:10148B0000BE5053313628312C32362C33372C27B3
:10149B003030272C3135293B5053313628312C3500
:1014AB00302C33372C272E2E2E2E2E2E7E2E6D707B
:1014BB0033272C3135293B0D0A005800F6FF184213
:1014CB00FF184DFF1858FF1863FF186EFF1879FFB0
:1014DB001884FF188F5800A6FF189AFF18A5FF183D
:1014EB00B0FF18BBFF18C6FF18D1FF18DCFF18E7B9
:1014FB00520094FF18F2FF1909FF1920FF1939FF49
:05150B001952FF196BED
:10240000900166E0FD75F00A8424309000CCF0ED78
:1024100075F00A84E5F02430A3F090014BE09000C1
:10242000E2F090014CE09000E3F090014DE090006C
:10243000E4F090014EE09000E5F090014FE0900054
:10244000E6F0900150E09000E7F0900151E090003C
:10245000EAF0900152E09000EBF0900153E0900020
:09246000ECF07B017A0079BE2248
:0526AC0090021CEFF09C
:1026B100781D7C027D017BFF7A1979847E007F1A67
:1026C10012118690021CE0FF75F00A84FE700990D9
:1026D100022C7420F0EF800D90021CE0FDEE2430FE
:1026E10090022CF0ED75F00A84E5F02430A3F07B24
:0526F100017A02791DD1
:0126F60022C1
:0529C60090021CEFF07F
:1029CB00781D7C027D017BFF7A19799E7E007F1238
:1029DB0012118690021CE0900222F07B017A0279A0
:0129EB001DCE
:0129EC0022C8
:0B256C0090021CEFF0A3EDF0A3EBF0D9
:10257700781F7C027D017BFF7A1979B07E007F4A44
:1025870012118690021CE02430900233F090021D55
:10259700E0243090024AF090021EE0FD75F00A84B4
:1025A7002430900262F0ED75F00A84E5F02430A340
:0725B700F07B017A02791F9D
:0125BE0022FA
:0529740090021CEFF0D1
:10297900781D7C027D017BFF7A1979FA7E007F132D
:1029890012118690021CE0243090022AF07B017A11
:0329990002791DA3
:01299C002218
:05299D0090021CEFF0A8
:1029A200781D7C027D017BFF7A1A790D7E007F11F2
:1029B20012118690021CE02433900228F07B017AE7
:0329C20002791D7A
:0129C50022EF
:0527BE0090021CEFF089
:1027C300781D7C027D017BFF7A1A791E7E007F18BB
:1027D30012118690021CE0FD75F00A8424309002E9
:1027E3002DF0ED75F00A84E5F02430A3F07B017A37
:0327F30002791D4B
:0127F60022C0
:102A6400EF75F003A42494F582E43400F583E0FBCD
:072A7400A3E0FAA3E0F92240
:10294900900209E0700EEF75F003A424F6F582E415
:102959003400800CEF75F003A424A6F582E434005A
:0B296900F583E0FBA3E0FAA3E0F922F5
:10286500900149E0FF70077B017A00790622EF7538
:10287500F0038475F00AA4FFAEF07C007D0A121106
:10288500D7EF2430900135F0A37430F0A37425F010
:072895007B017A0179112299
:1023930090015BE0FEA3E0FF7C007D3C1211D7AA15
:1023A30006AB077C007D0A1211D7EF243090004959
:1023B300F07C007D0AAF03AE021211D7ED2430A3E7
:1023C300F090015BE0FEA3E0FF7C007D3C1211D79F
:1023D300AA04AB057D0A7C00AF03AE021211D7EF4E
:1023E300243090004CF07D0A7C00AF03AE02121142
:0D23F300D7ED2430A3F07B017A0079392268
:101D7D0090016BE0FEA3E0FF7C007D3C1211D7AA21
:101D8D0006AB077C007D0A1211D7EF243090006757
:101D9D00F07C007D0AAF03AE021211D7ED2430A303
:101DAD00F090016BE0FEA3E0FF7C007D3C1211D7AB
:101DBD00AA04AB057D0A7C00AF03AE021211D7EF6A
:101DCD00243090006AF07D0A7C00AF03AE02121140
:101DDD00D7ED2430A3F090015BE0FCA3E0FDE4120D
:101DED000FFCC004C005C006C00790016BE0FCA34A
:101DFD00E0FDE4120FFCD003D002D001D000120F91
:101E0D005AE4FBFA79877843120E51E4FBFA7970A4
:101E1D007841120D60121035AB07AA067C007D6467
:101E2D001211D7EF2430900086F07C007D0AAF03AD
:101E3D00AE021211D77C007D0A1211D7ED2430A30A
:101E4D00F0AE02AF037C007D0A1211D7ED2430A352
:071E5D00F07B017A007957C8
:011E6400225B
:102A9100438920758DFD758BFDD28EC29FD29ED24A
:042AA1009CD2AC22F5
:0300230002277D34
:10277D00C0E0C083C082C0D075D018C2AF900167D1
:10278D00E0C39496502030981DC298E599B44F023D
:10279D00E4F0900167E0FF04F0746D2FF582E434EE
:1027AD0001F583E599F0D2AFD0D0D082D083D0E0BF
:0127BD0032E9
:082B6D008F993099FDC29922F5
:102AA5001211ACFFF4600C122B6D740129F9E43A94
:042AB500FA80ED2294
:102AED00438E08759A50538EFB759CFA438E1022B7
:0B2B2D008F9BE59A30E1FB539AFD22DC
:102AB9001211ACFF600C122B2D740129F9E43AFABA
:032AC90080EE227A
:10151000C18242029E000042029B00004202A600DD
:1015200000410292004102A3004102970141029D45
:10153000004102A50141029AC84102A44B41029612
:09154000014102940041029500F2
:10217700E4F5D8F5E9F5F9F5D9900298F0A3744894
:10218700F0900298E0FEA3E0F5EBEEF5FBE02448C3
:10219700F0900298E03400F075DB49D2DEE490025B
:1021A7009EF0A3F0D2BF43B780900163E09002A0F6
:1021B700F0900209E070047F0180027F009002A87E
:1021C700EFF09002A5E0FF70047E0180027E009090
:1021D70002A1EEF0EF70047F0180027F009002936E
:1021E700EFF070047F0180027F009002A2EFF09071
:1021F70002A5E024FF9290900293E024FF9295EFCE
:0722070024FF92969297223A
:03003B00021A3670
:101A3600C0E0C0F0C083C082C0D075D000C000C076
:101A460001C002C003C004C005C006C007C2D990C9
:101A56000298E0FEA3E0F5EBEEF5FBE02448F090FB
:101A66000298E03400F0900209E0FF605190029F76
:101A7600E004F0700690029EE004F090029EE0B44E
:101A8600323CA3E0B4003790029EE4F0A3F090014C
:101A96005BE0FCA3E0FD90016BE06C7003A3E06DDE
:101AA600601090016CE004F0700E90016BE004F0A1
:101AB60080069002047401F09001597401F09001BF
:101AC60056E0602A9002A7E004F070069002A6E0B5
:101AD60004F09002A6E0B47D15A3E0B400109002D5
:101AE600A6E4F0A3F0900156F090015704F090019F
:101AF60063E0FE9002A0E0FD6E6003021BA6ED64AB
:101B060001704CEF70047F0180027F009002A8E014
:101B16006F602D900209E070047F0180027F0090C3
:101B260002A8EFF06012900293E024FF92959002D3
:101B3600A2E024FF929680089002A2E024FF9295EC
:101B46009002A8E06003021C281225BF021C289000
:101B560002A0E064026003021C28900209E0FF7004
:101B6600047E0180027E009002A8E06E6026EF707F
:101B7600047F0180027F009002A8EFF0900209E046
:101B860070129002A2E024FF92979296900293E040
:101B960024FF92959002A8E0704D121C43021C2867
:101BA600900163E0FF9002A0E06F6076EFF07012A4
:101BB600A3E024FF9290A3E024FF92979296929539
:101BC60080609002A0E0FF640170309002A3F09064
:101BD600029704F090029DE4F09002A5E024FF92A3
:101BE60090900209E0703B9002A2E024FF92979247
:101BF60096900293E024FF92958027EFB4022390FB
:101C060002A5E024FF92909002A3E4F090029704CC
:101C1600F090029DE4F090029604F0900294E4F0B5
:101C2600A3F0D007D006D005D004D003D002D0014F
:0D1C3600D000D0D0D082D083D0F0D0E032EA
:101C4300900296E060679002A3E004F090029AE0AD
:101C5300FF9002A3E06F7041F0D295C29690029775
:101C6300E090029D6005E004F08003E014F0900230
:101C73009DE0FEB50719E49002A3F090029704F0EB
:101C8300E490029DF0900296F090029404F022EE0C
:101C9300B401069002977401F090029DE0FF900258
:101CA300A3E06F6003021D7CC295D296229002943A
:101CB300E0605F9002A3E004F090029AE0FF9002DC
:101CC300A3E06F703CF0D296C297900297E0900227
:101CD3009D6005E004F08003E014F090029DE0FEB7
:101CE300B50714E49002A3F090029704F0E4900285
:101CF3009DF09002948063EEB40106900297740104
:101D0300F090029DE0FF9002A3E06F706CC296D248
:101D13009722900295E060619002A3E004F09002A4
:101D23009AE0FF9002A3E06F703FF0D297C29590C4
:101D33000297E090029D6005E004F08003E014F058
:101D430090029DE0FEB50717E49002A3F09002977E
:101D530004F0E490029DF0900295F0A304F022EECB
:101D6300B401069002977401F090029DE0FF900287
:0A1D7300A3E0B50704C297D2952241
:1025BF009002A3E004F090029AE0FF9002A3E06F74
:1025CF007030F0D296900297E090029D6005E00483
:1025DF00F08003E014F090029DE0FEB50707E49051
:1025EF000297F0800D9002A4E0B506069002977452
:1025FF0001F090029DE0FF9002A3E0B50702C296A2
:01260F0022A8
:100D59000210A1E86480F8E933E83360110460F017
:100D6900ED33EC337009E8FCE9FDEAFEEBFF220400
:100D790060DED3EB9FEA9EE99DE8C2E78CF0C2F7FB
:100D890095F0400CE8CCF8E9CDF9EACEFAEBCFFBC7
:100D990012106C85D0F05804700320D5B3E80470A4
:100DA900075002B2D50210AB92D5EC0460F7E4CC3F
:100DB900C0E0C398F8603B94186008400DD0E0FB90
:100DC900021083E4FBFAC9FC8028E830E406E4C990
:100DD900FBE4CAFCE830E305E4C9CACBFCE85407E4
:100DE9006010F8C3E913F9EA13FAEB13FBEC13FCEF
:100DF900D8F130F52FC3E49CFCEF9BFFEE9AFEED92
:100E090099FDD0E0FBEF4E4D4C701222DB0302102E
:100E1900A8EC2CFCEF33FFEE33FEED33FDED30E7AC
:100E2900EB021083EF2BFFEE3AFEED39FDD0E0FB2C
:100E390050130BBB00030210ABED13FDEE13FEEFD5
:080E490013FFEC13FC021083FF
:100E5100EC4D6011E8497017ED33EC3304600DE49B
:100E6100FCFFFEFD22E933E8330470F80210A11201
:100E7100106C58046009E4CC248150062850090202
:100E810010AB2840030210A8C0E0EB4A7044B980BF
:100E910006D0E0FB021097EF4E701CBD8008EBFFFF
:100EA100EAFEE9FD80EBE98DF0A4FEE5F0020F3AE0
:100EB100E9CDF9EAFEEBFFEF89F0A4FCE5F0CE897C
:100EC100F0A42EFFE435F0CD89F0A42DFEE435F039
:100ED1008067EF4E7005BD80D780C3EF8BF0A4AC67
:100EE100F0EE8BF0A42CFCE435F0F8EF8AF0A42CA2
:100EF100E5F038FCE433CB8DF0A42CFCE5F03BF8B5
:100F0100EE8AF0A42CFCE5F038F8E433CF89F0A4A4
:100F11002CFCE5F038CF3400CE89F0A42FFFE5F0AA
:100F21003EFEE433C98DF0A42EFEE5F039CD8AF002
:100F3100A42FFFE5F03EFEE43DFD33D0E0FB50077A
:100F41000BBB000F0210ABEC2CFCEF33FFEE33FEBA
:060F5100ED33FD021083E8
:100F57000210ABEC5D046005E8590470030210A1B0
:100F670012106C580460F6EC4860F2EC7004FDFE59
:100F7700FF22C860DB2481C85009C398600250066D
:100F87000210A89850CAF582E9294B4A7005AB822E
:100F970002109775F0007C1A7880C3EF9BEE9AEDEC
:100FA70099400DC3EF9BFFEE9AFEED99FDE842F0E5
:100FB700DC23ACF0D0E0FFD0E0FED0E0FDAB822038
:100FC700E7101BEB60BAEC2CFCEF33FFEE33FEEDC2
:100FD70033FD021083E803F830E705C0F075F00031
:100FE700EF2FFFEE33FEED33FD40B830E7C280AAA6
:100FF70075F020800E75F010800575F0087D007E75
:10100700007F003392D530D50312122CEC334010F9
:10101700EF33FFEE33FEED33FDEC33FCD5F0ED227D
:0E102700E5F0247EA2D513CC92E7CDCEFF22B9
:10103500EDD2E7CD33EC3392D524814006E4FFFEB3
:10104500FDFC22FCE4CFCECDCC24E0501174FF8012
:10105500EDC3CC13CCCD13CDCE13CECF13CF0470AF
:07106500F030D5DE02122C71
:10106C00E9D2E7C933E833F892D5EDD2E7CD33ECCA
:07107C0033FC5002B2D52243
:10108300EC30E7100FBF000C0EBE00080DBD0004CE
:101093000BEB6014A2D5EB13FCED92E7FD2274FF7A
:1010A300FCFDFEFF22E480F8A2D574FF13FC7D80D3
:0310B300E480EFE7
:0300000002229A3F
:0C229A00787FE4F6D8FD7581200222E177
:1010B600E709F608DFFA8046E709F208DFFA803E1C
:1010C60088828C83E709F0A3DFFA8032E309F60809
:1010D600DFFA8078E309F208DFFA807088828C8371
:1010E600E309F0A3DFFA806489828A83E0A3F60825
:1010F600DFFA805889828A83E0A3F208DFFA804CFF
:1011060080D280FA80C680D4806980F280338010D5
:1011160080A680EA809A80A880DA80E280CA80333E
:1011260089828A83ECFAE493A3C8C582C8CCC583B6
:10113600CCF0A3C8C582C8CCC583CCDFE9DEE78086
:101146000D89828A83E493A3F608DFF9ECFAA9F005
:10115600EDFB2289828A83ECFAE0A3C8C582C8CC5B
:10116600C583CCF0A3C8C582C8CCC583CCDFEADE74
:10117600E880DB89828A83E493A3F208DFF980CCD6
:1011860088F0EF60010E4E60C388F0ED2402B404CF
:101196000050B9F582EB2402B4040050AF23234576
:0611A60082239011067384
:1011AC00BB010689828A83E0225002E722BBFE0241
:0911BC00E32289828A83E4932274
:1011C500EF8DF0A4A8F0CF8CF0A428CE8DF0A42E3E
:0211D500FE22F8
:1011D700BC000BBE0029EF8DF084FFADF022E4CCFC
:1011E700F875F008EF2FFFEE33FEEC33FCEE9DECC5
:1011F700984005FCEE9DFE0FD5F0E9E4CEFD22ED0B
:10120700F8F5F0EE8420D21CFEADF075F008EF2F54
:10121700FFED33FD4007985006D5F0F222C398FD45
:051227000FD5F0EA22E2
:0E122C00C3E49FFFE49EFEE49DFDE49CFC22D3
:10123A00D083D082F8E4937012740193700DA3A343
:10124A0093F8740193F5828883E473740293686057
:06125A00EFA3A3A380DF57
:1022A600022519E493A3F8E493A34003F68001F210
:1022B60008DFF48029E493A3F85407240CC8C33339
:1022C600C4540F4420C8834004F456800146F6DF08
:1022D600E4800B0102040810204080901260E47E26
:1022E600019360BCA3FF543F30E509541FFEE493FD
:1022F600A360010ECF54C025E060A840B8E493A3C4
:10230600FAE493A3F8E493A3C8C582C8CAC583CAEE
:10231600F0A3C8C582C8CAC583CADFE9DEE780BEA6
:0115490000A1
:00000001FF
